:100000000C9452010C947A010C947A010C947A01AC
:100010000C947A010C947A010C947A010C947A0174
:100020000C947A010C947A010C947C050C9434069F
:100030000C947A010C947A010C947A010C947A0154
:100040000C947A010C947A010C947A010C947A0144
:100050000C947A010C947A010C947A010C94CC0AD9
:100060000C947A010C947A010C947A010C947A0124
:100070000C947A010C947A010C947A010C947A0114
:100080000C947A010C947A010C947A010C947A0104
:100090000C947A010C947A010C947A010C947A01F4
:1000A0000C947A010C947A010C947A011D0D310D97
:1000B000310D310D310D310D310D160D310D310D6B
:1000C000310D310D310D140DDC0CE80CEF0CFB0C77
:1000D000FD0C040D060D080DAD08B0089F08A3081F
:1000E000A908D108D108D108B408B808BC08C208CA
:1000F000C608D108CC0800000000000000002A2B30
:1001000028000000000000000000000000000000C7
:100110000000000000002C9EB4A0A1A2A434A6A759
:10012000A5AE362D3738271E1F2021222324252651
:10013000B333B62EB7B89F8485868788898A8B8C1F
:100140008D8E8F909192939495969798999A9B9C67
:100150009D2F3130A3AD350405060708090A0B0CA5
:100160000D0E0F101112131415161718191A1B1C47
:100170001DAFB1B0B500080B000202020000090477
:100180000000010202000005240010010524010105
:10019000010424020605240600010705810310005E
:1001A0004009040100020A000000070502024000A5
:1001B0000007058302400000040309041201000245
:1001C000EF02014041233680000101020301417228
:1001D0006475696E6F204C4C430041726475696EA2
:1001E0006F204C656F6E6172646F00000000002428
:1001F0000027002A002D0030000000000025002804
:10020000002B002E003100000000002300260029F2
:10021000002C002F0004040404040304050202025D
:10022000020403020202020606060606060404028F
:1002300002020404040802011040804010204080A3
:10024000408008020401804020100201108010202C
:100250004040200000000200090F000003040100DC
:100260000C00000000000000000000000000000082
:10027000000005010906A1018502050719E029E72B
:100280001500250175019508810295017508810306
:100290009506750815002573050719002973810057
:1002A000C0007A0D11241FBECFEFDAE0DEBFCDBF54
:1002B00011E0A0E0B1E0ECE7FCE102C005900D9296
:1002C000AA35B107D9F722E0AAE5B1E001C01D9235
:1002D000AB36B207E1F711E0C2E5D1E004C02197E7
:1002E000FE010E94310EC135D107C9F70E94160BDD
:1002F0000C943C0E0C9400004091680150916901EF
:10030000209166013091670142175307B4F4909130
:10031000E8009570E1F39091E80092FD19C0809398
:10032000F100809168019091690101968F7399277E
:10033000892B19F48EEF8093E800809168019091E9
:1003400069010196909369018093680181E00895A5
:1003500080E00895DF92EF92FF920F931F93CF9367
:10036000DF93D82EF92EE42E062F10E0C801019657
:10037000880F0E947C0183E00E947C01CD2DDF2D3F
:100380000C0F1D1FC017D10789F0E7FE03C0FE0147
:10039000849101C088810E947C01F82E80E00E9437
:1003A0007C018F2121968111EDCF01C081E0DF9189
:1003B000CF911F910F91FF90EF90DF900895DF9202
:1003C000EF92FF920F931F93CF93DF93D82E8A0162
:1003D0007B01E40EF51EEB01CE15DF0571F0D7FEB3
:1003E00003C0FE01849101C088810E947C01219696
:1003F0008111F2CF8FEF9FEF01C0C801DF91CF9144
:100400001F910F91FF90EF90DF9008952FB7F89410
:1004100087708093E9009091E800892F807295FFA2
:1004200004C09091F20080E4891B2FBF08956150B1
:1004300030F02091F100FC0120830196F8CF28983C
:1004400084E680936E010895CF92DF92EF92FF923F
:100450000F931F93CF93DF936C017A018B01C0E060
:10046000D0E0CE15DF0581F0D8016D918D01D60168
:10047000ED91FC910190F081E02DC6010995892B49
:1004800011F02196EECF7E01C701DF91CF911F9130
:100490000F91FF90EF90DF90CF900895CF93DF936F
:1004A0001F92CDB7DEB76983DC01ED91FC9102802C
:1004B000F381E02D41E050E0BE016F5F7F4F099571
:1004C0000F90DF91CF91089583E08093E9008091B0
:1004D000F200882319F08AE38093E800089583E00E
:1004E0000E94060290E00895FC018485958597FDA1
:1004F0000BC09FB7F89482E08093E9008091F200EE
:100500009FBF90E0019608959FB7F89482E0809392
:10051000E9008091F2009FBF90E00895DC01FB01AB
:1005200012968C91129790E024813581821793075F
:10053000D1F491818081813A31F481E0913091F060
:10054000933089F411C0813271F49B3021F482819F
:100550001F968C9305C09A3031F4828150968C930B
:1005600081E00895089580E00895DC01FB0188E4AE
:10057000808389E4818384E482831D969C911D9706
:100580009F709F5B93831D968D919C911E9724E095
:10059000969587952A95E1F78F708F5B848385E028
:1005A0000895EF92FF920F931F93CF93DF93FB0178
:1005B0002081213851F52381223239F5DC01129650
:1005C0002C9130E04481558142175307F1F4EC013E
:1005D0000B851C85E12CF12C0115110591F0F8011A
:1005E000448155816281738180E80E94DF018F3FE1
:1005F000FFEF9F0769F0E80EF91ED8010D911C91DD
:10060000EBCF81E08F87C70105C080E090E002C09A
:100610008FEF9FEFDF91CF911F910F91FF90EF90A0
:100620000895CF93DF93CDB7DEB769970FB6F894EF
:10063000DEBF0FBECDBFFC01DB018C918F5F8C93C1
:10064000BE016F5F7F4F89E1DB011D928A95E9F75B
:1006500029E0298384E08A8391E09D8383E08E836F
:100660002A8721E22B879C879D879F8722E2288B00
:1006700027E02B8B25E02C8B8E8B20E430E0388F0D
:100680002F8B998F82818B8395858685998B8A8B19
:10069000838180688D8B49E150E080E00E94DF011A
:1006A00069960FB6F894DEBF0FBECDBFDF91CF9134
:1006B0000895FC0182818F5BFB01808381E00895B6
:1006C000CF92DF92EF92FF920F931F93CF93DF931E
:1006D0006C01EB017B01E40EF51E00E010E0CE158D
:1006E000DF0581F069916D30D1F3D601ED91FC9178
:1006F0000190F081E02DC6010995892B19F00F5F5B
:100700001F4FEDCFC801DF91CF911F910F91FF9047
:10071000EF90DF90CF900895089580E090E00895E5
:100720007F928F929F92AF92BF92CF92DF92EF9281
:10073000FF920F931F93CF93DF93C82E8B017A0103
:1007400080916F01811103C08FEF9FEF74C0809182
:100750006C0180FF05C08091E00082608093E00022
:10076000CE2DDF2DD12C8AEFB82E8C2D8770982EB0
:100770008C2D8072882E8C2D8074782E9AE3A92E71
:10078000209719F4DD2009F451C08C2D0E94060237
:1007900081110AC0BA94BB20B9F261E070E080E038
:1007A00090E00E94920AECCF282F30E0C217D307C6
:1007B0000CF48C2F9FB7F8949092E9002091E800F8
:1007C00025FF32C0282F30E0C21BD30B882029F030
:1007D0008150A0F01092F100FBCFF801C7FE0AC0D3
:1007E000815050F044914093F1003196F9CF4191FE
:1007F0004093F1008150D8F7020F131FDD2019F04C
:10080000A092E8000AC08091E80085FD08C0A0928F
:10081000E800DD24D394209739F0D12C05C020972F
:1008200019F47110A092E8009FBFAACF5D9884E6EA
:1008300080936B01C701DF91CF911F910F91FF90C2
:10084000EF90DF90CF90BF90AF909F908F907F9070
:100850000895CF93DF93EC0180910B01882331F051
:1008600083E00E9490031816190634F081E090E0AE
:100870009B838A8380E090E0DF91CF910895862F5B
:10088000642F0C94560A862F642F0C94270A862F07
:100890000C94FE090E94370E0F931F93CF93DF93A2
:1008A0001F92CDB7DEB78C01FC018485958597FF3B
:1008B0000EC0CE0101960E94D009019719F48981DA
:1008C00090E002C08FEF9FEFF80195878487F801D1
:1008D000848595850F90DF91CF911F910F91089599
:1008E000CF93DF931F92CDB7DEB7FC01848595854A
:1008F00097FD05C02FEF3FEF358724870BC0CE0152
:1009000001960E94D009019719F4898190E002C0F4
:100910008FEF9FEF0F90DF91CF9108950F931F936B
:10092000CF93DF931F92CDB7DEB78B018091D501B6
:10093000811105C00E94F70881E08093D50182E013
:10094000898341E050E0BE016F5F7F4F8091C70116
:100950000E94900397FD08C08091C70148E050E0D5
:10096000B80180640E9490030F90DF91CF911F9196
:100970000F910895DC01683810F0685825C0E62F03
:10098000F0E067FF12C0E058F10981E090E001C09B
:10099000880FEA95EAF7809514969C91149789231D
:1009A00014968C93149760E00FC0EA50FF4F649147
:1009B0006623F9F067FF08C014968C9114978D7F19
:1009C00014968C9314976F77FD0186E0662321F0CF
:1009D0009681691301C01682815031968111F6CF3C
:1009E000CD01BD016C5F7F4F0E948E0481E090E0DD
:1009F000089580E090E00895DC01683810F06858B0
:100A00002DC0E62FF0E067FF11C0E058F10981E04A
:100A100090E001C0880FEA95EAF714969C9114972C
:100A2000892B14968C93149760E018C0EA50FF4FFE
:100A30006491611109C081E090E013969C938E93BC
:100A4000129780E090E0089567FF08C014968C919B
:100A50001497826014968C9314976F7716968C91E6
:100A60001697681751F117968C911797681729F107
:100A700018968C911897681701F119968C9119970F
:100A80006817D9F01A968C911A976817B1F01B96CF
:100A90008C911B97681789F0FD01369680E090E0F5
:100AA0002191211105C0FD01E80FF91F668305C0E2
:100AB000019686309105A1F7BECFCD01BD016C5FD7
:100AC0007F4F0E948E0481E090E00895EF92FF92A4
:100AD0001F93CF93DF93EC01162F0E94FC047C013F
:100AE000612FCE010E94BA04C7019927DF91CF91EF
:100AF0001F91FF90EF9008951F920F920FB60F92E3
:100B000011248F939F938091E1009091E100937F56
:100B10009093E10083FF0FC01092E90091E0909361
:100B2000EB001092EC0092E39093ED0010926F01B5
:100B300098E09093F00082FF20C093E09093E9004A
:100B40009091F200992319F09AE39093E800909124
:100B50006B01992339F090916B01915090936B0147
:100B6000992389F190916E01992339F090916E014A
:100B7000915090936E01992341F184FF10C08091B0
:100B8000E2008E7E81608093E2008091E1008F7EA2
:100B90008093E10080916C018E7E806111C080FFA6
:100BA00016C08091E2008E7E80618093E200809189
:100BB000E1008E7E8093E10080916C018E7E8160E9
:100BC00080936C0104C05D9ACDCF289AD6CF9F91B7
:100BD0008F910F900FBE0F901F90189580915E011E
:100BE00081110DC082E080935A0184E080935B0103
:100BF00010925D0110925C0181E080935E018AE5B4
:100C000091E008950F931F93CF93DF931F92CDB779
:100C1000DEB782E0898342E450E066E771E080E875
:100C20000E94DF010E94EE05DC0112960D911C91DD
:100C300013970115110589F0D801ED91FC910280FF
:100C4000F381E02DBE016F5F7F4FC801099597FDCD
:100C500004C0F80100851185ECCF89810F90DF91E8
:100C6000CF911F910F9108951F920F920FB60F927F
:100C70001124CF92DF92EF92FF920F931F932F9345
:100C80003F934F935F936F937F938F939F93AF9314
:100C9000BF93EF93FF93CF93DF93CDB7DEB76C97FE
:100CA000DEBFCDBF1092E9008091E80083FFFBC159
:100CB00068E0CE0145960E94170282EF8093E8001B
:100CC0008D8987FF05C09091E80090FFFCCF03C09D
:100CD0009EEF9093E800982F907609F0C6C09E8909
:100CE0004F89588D2F89F88C91110CC0803829F4C8
:100CF00080916D018093F10002C01092F10010927A
:100D0000F10045C1913051F4811141C1413051058B
:100D100009F03DC180916D018D7F0BC0933061F46E
:100D2000811135C14130510509F031C180916D010A
:100D3000826080936D012BC1953049F48091E80069
:100D400080FFFCCF822F80688093E30020C1963023
:100D500009F05EC00B8D1C8D22E01092E90010920C
:100D6000690110926801F21232C01092670110926C
:100D700066010E94020699E0BE016F5F7F4FDB01B2
:100D8000E92F1D92EA95E9F79983FA8291E09E8313
:100D900090EA98879AEF99872091680130916901CC
:100DA000275F3F4F3C832B838D831092E900109285
:100DB000690110926801109367010093660149E090
:100DC00050E080E00E94DF010E940206E0C0109324
:100DD0006701009366010E94EE05DC0112960D91F9
:100DE0001C9113970115110509F4BBC0D801ED91B1
:100DF000FC910480F581E02DBE016B5E7F4FC80140
:100E00000995009709F0C7C0F80100851185EACF60
:100E1000973009F445C1983021F481E08093F100C6
:100E2000B6C0993009F0B3C0837009F039C1EDE064
:100E3000F1E081E031E096E32081211109C08EE7E5
:100E40008093EA001092EA008F8980936F019FC01F
:100E50008093E9003093EB0021912093EC00909374
:100E6000ED008F5F873041F7EACF8B8D9C8D10921C
:100E7000E9001092690110926801909367018093D4
:100E80006601898D811153C08E899D89913A49F4FB
:100E9000813209F005C147E050E064E071E080E094
:100EA000BBC0913209F0FCC0833269F48F89988D00
:100EB000A0E0B0E08093000190930101A0930201B3
:100EC000B093030164C0803269F48091E80082FF2E
:100ED000FCCF67E084E091E00E9417028BEF8093E3
:100EE000E80055C0823209F052C08F8980930B010F
:100EF000EEEFFFE7859194918B3F9C4D19F0E0E078
:100F0000F8E002C0EEEFFAE0809104019091050153
:100F1000A0910601B0910701803B9440A105B10565
:100F200009F09EC080910B0180FF79C099C00E949A
:100F3000EE05FC01028113810115110509F4B0C011
:100F4000D801ED91FC910190F081E02DBE016B5E26
:100F50007F4FC801099581111AC0F80100851185DC
:100F6000EBCFF1E0FF1609F44EC0F3E0FF1298C09A
:100F70008F89882309F44AC0823089F440E860E10F
:100F80008AED91E00E94AA01882309F489C08EEFBE
:100F90008093E80088C018161906CCF381C0813010
:100FA00029F440E86BE08EEC91E0ECCF833009F05F
:100FB00077C00E94EE05DC011296ED90FC9013972D
:100FC0008E010F5F1F4F6801E114F10479F0D70122
:100FD000ED91FC910680F781E02DB801C7010995DC
:100FE000080F111DF701E084F184EECFD8011C92A7
:100FF000F60101900020E9F73197BF016C197D09D6
:1010000040E0C601BFCF6CEB71E002C068EB71E05D
:10101000FB01449150E080E80E94DF01B8CFEE3F31
:101020002AE0F20751F0808191818737A7E79A077C
:1010300021F09093FF0A8093FE0A87E797E7918358
:1010400080838091600080936A019BE088E10FB605
:10105000F894A895809360000FBE9093600097CF9E
:10106000808191818737974709F091CFA89580912A
:10107000600088618093600080916A0180936000C5
:10108000EE3FBAE0FB0739F08091FE0A9091FF0A2B
:10109000918380837CCF1092FF0A1092FE0A77CF53
:1010A00081E28093EB006C960FB6F894DEBF0FBE22
:1010B000CDBFDF91CF91FF91EF91BF91AF919F9104
:1010C0008F917F916F915F914F913F912F911F91E0
:1010D0000F91FF90EF90DF90CF900F900FBE0F9089
:1010E0001F90189596E0899FD0011124A751BE4FFB
:1010F00090967C936E935F9791E091969C939197D5
:1011000090915502E0915602F0915702992339F0DF
:10111000309751F0811108C08091050204C03097CA
:1011200019F05C968C910994089590E0FC01319738
:10113000EF30F105B0F5E459FF4F0C94310E80917A
:1011400080008F7703C0809180008F7D8093800026
:10115000089580918000877FF9CF84B58F7702C092
:1011600084B58F7D84BD0895809190008F7707C0EE
:10117000809190008F7D03C080919000877F809345
:10118000900008958091C0008F7703C08091C000C7
:101190008F7D8093C00008958091C200877F8093E7
:1011A000C20008953FB7F8948091590290915A0275
:1011B000A0915B02B0915C0226B5A89B05C02F3FB1
:1011C00019F00196A11DB11D3FBFBA2FA92F982F6D
:1011D0008827820F911DA11DB11DBC01CD0142E0E8
:1011E000660F771F881F991F4A95D1F7089581E0F0
:1011F0008093C8018093C9012EEC31E03093CB017C
:101200002093CA011092CD011092CC012AE231E064
:101210003093C5012093C4011092D0011092CF01E8
:101220001092D2011092D1018093D3018093D40106
:1012300081EC8093CE010E94EE05FC01218180911A
:10124000C80190E0820F911D0897C4F5A281B38177
:10125000109729F484EC91E0938382830EC0189652
:101260008D919C911997009711F0DC01F8CF84ECD7
:1012700091E019969C938E93189780818093C60174
:1012800081818093C70190818091C901890F8083FA
:1012900080E09091C801891788F4A091CA01B091AB
:1012A000CB01A80FB11D9C91A181B0E0A45FBE4FFE
:1012B0009C9391819F5F91838F5FEBCF0895CF9235
:1012C000DF92EF92FF920F931F9396E0899FF001B8
:1012D0001124E751FE4F11A2278D30A12130310595
:1012E00039F158F02230310509F447C02330310577
:1012F00009F04FC060E070E044C0662309F449C0C3
:1013000061E070E00E9472082FB7F894809170013C
:1013100090917101A0917201B09173012FBF8093E0
:10132000410290934202A0934302B093440231C021
:101330009FB7F894C0907001D0907101E090720155
:10134000F09073019FBF00914102109142022091E1
:10135000430230914402C01AD10AE20AF30A009112
:1013600053021091540220E030E00C151D052E05AB
:101370003F0518F462E070E004C061110AC063E048
:1013800070E01F910F91FF90EF90DF90CF900C9441
:1013900072081F910F91FF90EF90DF90CF9008950A
:1013A00020916F01211103C08FEF9FEF08955FB768
:1013B000F89422E02093E9002091F20030E0121628
:1013C000130614F421E030E0422FFC0184E6415082
:1013D00038F0289880936E019091F1009193F7CFA7
:1013E0002115310521F08091F200882319F05FBFAB
:1013F000C90108958BE68093E800F9CFCF93DF937E
:10140000282F30E0F901ED5AFD4F8491F901EC5C91
:10141000FD4FD491F901EB5EFD4FC491CC2391F0C7
:1014200081110E949508EC2FF0E0EE0FFF1FE95F9D
:10143000FD4FA591B491EC91ED2381E090E021F472
:1014400080E002C080E090E0DF91CF9108951F938B
:10145000CF93DF93282F30E0F901ED5AFD4F8491AF
:10146000F901EC5CFD4FD491F901EB5EFD4FC491A5
:10147000CC23C1F0162F81110E949508EC2FF0E0CB
:10148000EE0FFF1FE750FE4FA591B4919FB7F89460
:10149000111104C08C91D095D82302C0EC91DE2BA1
:1014A000DC939FBFDF91CF911F910895CF93DF937E
:1014B00090E0FC01EC5CFD4F2491FC01EB5EFD4FE4
:1014C0008491882361F190E0880F991FFC01E55118
:1014D000FE4FC591D491FC01E750FE4FA591B49108
:1014E000611109C09FB7F894888120958223888371
:1014F000EC912E230BC0623061F49FB7F894888181
:10150000322F309583238883EC912E2B2C939FBF11
:1015100006C08FB7F894E8812E2B28838FBFDF9108
:10152000CF9108958F929F92AF92BF92CF92DF9208
:10153000EF92FF926B017C010E94D2084B015C018B
:10154000C114D104E104F104F1F00E94D208DC01DD
:10155000CB0188199909AA09BB09883E9340A105C6
:10156000B10570F321E0C21AD108E108F10888EE54
:10157000880E83E0981EA11CB11CC114D104E104A3
:10158000F10419F7DDCFFF90EF90DF90CF90BF907F
:10159000AF909F908F9008951F920F920FB60F9269
:1015A00011242F933F938F939F93AF93BF93809179
:1015B000700190917101A0917201B091730130910D
:1015C000580223E0230F2D3720F40196A11DB11DF1
:1015D00005C026E8230F0296A11DB11D20935802D5
:1015E0008093700190937101A0937201B093730185
:1015F0008091590290915A02A0915B02B0915C02D5
:101600000196A11DB11D8093590290935A02A09397
:101610005B02B0935C02BF91AF919F918F913F911C
:101620002F910F900FBE0F901F901895789484B54E
:10163000826084BD84B5816084BD85B5826085BDCE
:1016400085B5816085BD80916E00816080936E005C
:10165000109281008091810082608093810080914E
:1016600081008160809381008091800081608093FF
:101670008000809191008260809391008091910020
:1016800081608093910080919000816080939000B0
:101690008091C10084608093C1008091C10082600C
:1016A0008093C1008091C10081608093C1008091CE
:1016B000C30081608093C3008091C00082608093EA
:1016C000C0008091C20081608093C20080917A0046
:1016D000846080937A0080917A00826080937A009F
:1016E00080917A00816080937A0080917A0080688E
:1016F00080937A0010926F0110926D0110926C012C
:101700008091D70081608093D70080EA8093D800D1
:1017100089B5806189BD89B5826089BD09B400FE43
:10172000FDCF61E070E080E090E00E94920A80913D
:10173000D8008F7C80618093D8008091E000807F0A
:101740008093E0008091E1008E7E8093E1008DE047
:101750008093E200559A209A8FEF9FEF909381013A
:1017600080938001812C912C5401839422242A940B
:10177000322C60E0662E60E0762E21E02093550248
:101780008FB7F8944091700150917101609172018E
:10179000709173018FBF8091450290914602A09194
:1017A0004702B0914802481B590B6A0B7B0B809192
:1017B000510290915202A0E0B0E084179507A6076D
:1017C000B70708F0E7C0C0E080914F02C81710F0DB
:1017D000512C40C0E0914B02F0914C02EC0FF11DF6
:1017E00062E080810E94560ACF5FEECFC42DD0E028
:1017F000E0914B02F0914C02EC0FFD1F80810E94A2
:10180000FE092496CC0FDD1FC751DE4F892B09F04E
:101810004BC0888199818C299D2999838883439421
:1018200080914F02481610F3E0914D02F0914E0264
:10183000E00FF11F61E080810E94270A80914D0234
:1018400090914E02FC01E00FF11F60E080810E9448
:10185000560A539480915002581658F5052D10E001
:10186000E0914D02F0914E02E00FF11F61E08081A6
:101870000E94560AE0914D02F0914E02E00FF11FD6
:1018800060E080810E94270AD501C401052C04C0B4
:10189000880F991FAA1FBB1F0A94D2F76C017C0105
:1018A000E094F094412CBCCF888199818E219F21B6
:1018B000B4CFC9EED1E0FE01878D90A1892B21F430
:1018C000148E368E258E11A2369685E292E08E1702
:1018D0009F0791F710E080914F02181770F500E014
:1018E000E12EF12CC701880F991FFC01EF50FE4F2C
:1018F0007F01209150020217F0F4F70140815181DD
:10190000002E02C0569547950A94E2F7642F617045
:10191000129F90011124200F311DE9EEF1E080E0CB
:10192000A58DB68D2A173B0709F4DAC08F5F36966E
:101930008A30B1F7B7C01F5FCECF80E099A1911177
:1019400081E0269622E0C532D207C1F79FB7F8940E
:101950004091700150917101609172017091730119
:101960009FBF409345025093460260934702709395
:101970004802882379F080910A02882359F08091E7
:10198000080290910902019729F4E0910502E11102
:1019900004C081C0109255027EC08E2FEE0F990BAD
:1019A000AA0BBB0BFC01B397E631F10508F059C057
:1019B000EA5AFF4F0C94310E61E88DED91E00E94E0
:1019C000FC0460E88DED91E00E94FC046CE645C0EB
:1019D00062E88DED91E00E94FC046AED3EC061E892
:1019E0008DED91E00E94FC0460E88DED91E00E9495
:1019F000FC0461E632C06FE230C062E88DED91E038
:101A00000E94FC0469ED29C060E327C060E806C0BD
:101A100060E88DED91E00E94FC0461E88DED91E0BD
:101A20000E94FC0460E219C060E617C060E88DED1A
:101A300091E00E94FC0461E710C060E88DED91E048
:101A40000E94FC046BE68DED91E00E94FC0460E8CE
:101A50008DED91E00E94BA0466E68DED91E00E9462
:101A6000FC0462E370E080E090E00E94920A109231
:101A7000E3011092E4011092E5011092E601109248
:101A8000E7011092E8011092E10161EE71E08DED45
:101A900091E00E948E046114710409F46ECE0E94DC
:101AA00000006BCE40FF1EC0E9EEF1E080E090E068
:101AB000448D411119C0E0914902F0914A02E20FB0
:101AC000F31F7081F6E0F89FA001F99F500D1124DB
:101AD000FA01E751FE4F748F368F258F10A2178EB3
:101AE0000E945F090F5F05CF019636968A309105F7
:101AF000F9F6F8CF109277011092760188EE93E014
:101B0000A0E0B0E08093780190937901A0937A01EE
:101B1000B0937B0186E391E090937501809374010B
:101B20008FEF9FEF90938101809380011092E001ED
:101B30001092DF0188E491E09093DE018093DD0153
:101B400080916302811113C010925E0210925D02B7
:101B500082E792E09093600280935F028FE290E0D0
:101B6000909362028093610281E08093630280918E
:101B7000D501811105C00E94F70881E08093D5014D
:101B8000E091CF01F091D001309739F48DE592E0EA
:101B90009093D0018093CF010AC0808191810097FA
:101BA00011F0FC01FACF8DE592E0918380832091C2
:101BB000D1013091D2018091610290916202820F35
:101BC000931F9093D2018093D1011092EB01109258
:101BD000EF011092EE011092F00184E591E09093F4
:101BE000EA018093E901E9EEF1E0148E10A2178E6C
:101BF00011A2369682E0E532F807B9F786E191E066
:101C000090934C0280934B0283E191E090934E02BB
:101C100080934D0284E080934F0283E080935002D2
:101C20008AE191E090934A02809349028AE090E031
:101C3000909352028093510284EF91E0909354026A
:101C4000809353021092570210925602109245024E
:101C500010924602109247021092480210925502CA
:101C60000895EE0FFF1F0590F491E02D099481E097
:0C1C700090E0F8940C943C0EF894FFCF28
:101C7C00FFFFFFFF00E100000000000000C18081B9
:101C8C0000000006070802030405313233343536F0
:101C9C003738392A3023000000008E021103D1029C
:101CAC00B502000000004E0229046F0264027402A7
:101CBC0070044C0400000000660560038D038C0367
:0A1CCC00000000003F044304470439
:00000001FF
