:100000000C9453010C947B010C947B010C947B01A8
:100010000C947B010C947B010C947B010C947B0170
:100020000C947B010C947B010C946D050C942506BB
:100030000C947B010C947B010C947B010C947B0150
:100040000C947B010C947B010C947B010C947B0140
:100050000C947B010C947B010C947B010C94BD0AE5
:100060000C947B010C947B010C947B010C947B0120
:100070000C947B010C947B010C947B010C947B0110
:100080000C947B010C947B010C947B010C947B0100
:100090000C947B010C947B010C947B010C947B01F0
:1000A0000C947B010C947B010C947B01280D320D88
:1000B000320D320D320D320D320D210D320D320D59
:1000C000320D320D320D150DCC0CD80CDF0CEB0CB3
:1000D000F20CF90C000D020D0E0D9E08A1089008FF
:1000E00094089A08C208C208C208A508A908AD0861
:1000F000B308B708C208BD080000000000000000F7
:100100002A2B280000000000000000000000000072
:1001100000000000000000002C9EB4A0A1A2A434A6
:10012000A6A7A5AE362D3738271E1F20212223244F
:100130002526B333B62EB7B89F8485868788898AEB
:100140008B8C8D8E8F909192939495969798999A87
:100150009B9C9D2F3130A3AD350405060708090A85
:100160000B0C0D0E0F101112131415161718191A67
:100170001B1C1DAFB1B0B500080B0002020200004D
:1001800009040000010202000005240010010524FA
:10019000010101042402060524060001070581036C
:1001A00010004009040100020A00000007050202D5
:1001B0004000000705830240000004030904120107
:1001C0000002EF02014041233680000101020301D9
:1001D00041726475696E6F204C4C430041726475C6
:1001E000696E6F204C656F6E6172646F0000000075
:1001F00000240027002A002D003000000000002508
:100200000028002B002E00310000000000230026F3
:100210000029002C002F0004040404040304050238
:100220000202020403020202020606060606060491
:10023000040202020404040802011040804010205D
:10024000408040800802040180402010020110809C
:1002500010204040200000000200090F00000304AD
:1002600001000C0000000000000000000000000081
:100270000000000005010906A1018502050719E03B
:1002800029E715002501750195088102950175087A
:100290008103950675081500257305071900297354
:1002A0008100C0008B0D11241FBECFEFDAE0DEBF4E
:1002B000CDBF11E0A0E0B1E0EEE9FCE102C00590A5
:1002C0000D92A036B107D9F722E0A0E6B1E001C057
:1002D0001D92A137B207E1F711E0C3E5D1E004C0F8
:1002E0002197FE010E94420EC235D107C9F70E9434
:1002F000070B0C944D0E0C94000040916E01509130
:100300006F0120916C0130916D0142175307B4F4D5
:100310009091E8009570E1F39091E80092FD19C08A
:100320008093F10080916E0190916F0101968F731F
:100330009927892B19F48EEF8093E80080916E0144
:1003400090916F01019690936F0180936E0181E00F
:10035000089580E00895DF92EF92FF920F931F932C
:10036000CF93DF93D82EF92EE42E062F10E0C8018C
:100370000196880F0E947D0183E00E947D01CD2DB2
:10038000DF2D0C0F1D1FC017D10789F0E7FE03C03A
:10039000FE01849101C088810E947D01F82E80E0D9
:1003A0000E947D018F2121968111EDCF01C081E056
:1003B000DF91CF911F910F91FF90EF90DF90089503
:1003C000DF92EF92FF920F931F93CF93DF93D82E7C
:1003D0008A017B01E40EF51EEB01CE15DF0571F0FD
:1003E000D7FE03C0FE01849101C088810E947D0177
:1003F00021968111F2CF8FEF9FEF01C0C801DF91ED
:10040000CF911F910F91FF90EF90DF9008952FB73C
:10041000F89487708093E9009091E800892F8072AA
:1004200095FF04C09091F20080E4891B2FBF0895CE
:10043000615030F02091F100FC0120830196F8CF4B
:10044000289884E6809374010895CF92DF92EF920A
:10045000FF920F931F93CF93DF936C017A018B016F
:10046000C0E0D0E0CE15DF0581F0D8016D918D019F
:10047000D601ED91FC910190F081E02DC601099526
:10048000892B11F02196EECF7E01C701DF91CF912C
:100490001F910F91FF90EF90DF90CF900895CF9331
:1004A000DF931F92CDB7DEB76983DC01ED91FC913C
:1004B0000280F381E02D41E050E0BE016F5F7F4F8D
:1004C00009950F90DF91CF91089583E08093E90023
:1004D0008091F200882319F08AE38093E800089560
:1004E00083E00E94070290E00895FC0184859585D1
:1004F00097FD0BC09FB7F89482E08093E90080914C
:10050000F2009FBF90E0019608959FB7F89482E0B3
:100510008093E9008091F2009FBF90E00895DC0194
:10052000FB0112968C91129790E0248135818217FD
:100530009307D1F491818081813A31F481E0913047
:1005400091F0933089F411C0813271F49B3021F421
:1005500082811F968C9305C09A3031F48281509627
:100560008C9381E00895089580E00895DC01FB01FB
:1005700088E4808389E4818384E482831D969C914E
:100580001D979F709F5B93831D968D919C911E97E5
:1005900024E0969587952A95E1F78F708F5B848389
:1005A00085E00895EF92FF920F931F93CF93DF930F
:1005B000FB012081213851F52381223239F5DC01FC
:1005C00012962C9130E04481558142175307F1F483
:1005D000EC010B851C85E12CF12C0115110591F026
:1005E000F801448155816281738180E80E94E001B5
:1005F0008F3FFFEF9F0769F0E80EF91ED8010D91BC
:100600001C91EBCF81E08F87C70105C080E090E0AF
:1006100002C08FEF9FEFDF91CF911F910F91FF905D
:10062000EF900895CF93DF93CDB7DEB769970FB6FC
:10063000F894DEBF0FBECDBFFC01DB018C918F5F54
:100640008C93BE016F5F7F4F89E1DB011D928A951C
:10065000E9F729E0298384E08A8391E09D8383E0A0
:100660008E832A8721E22B879C879D879F8722E2A2
:10067000288B27E02B8B25E02C8B8E8B20E430E021
:10068000388F2F8B998F82818B8395858685998B67
:100690008A8B838180688D8B49E150E080E00E94E5
:1006A000E00169960FB6F894DEBF0FBECDBFDF91B3
:1006B000CF910895FC0182818F5BFB01808381E0F3
:1006C0000895CF92DF92EF92FF920F931F93CF93F3
:1006D000DF936C01EB017B01E40EF51E00E010E0FE
:1006E000CE15DF0581F069916D30D1F3D601ED9122
:1006F000FC910190F081E02DC6010995892B19F03C
:100700000F5F1F4FEDCFC801DF91CF911F910F9168
:10071000FF90EF90DF90CF900895089580E090E0F3
:1007200008957F928F929F92AF92BF92CF92DF9265
:10073000EF92FF920F931F93CF93DF93C82E8B01FD
:100740007A0180917501811103C08FEF9FEF74C012
:100750008091720180FF05C08091E00082608093EB
:10076000E000CE2DDF2DD12C8AEFB82E8C2D877096
:10077000982E8C2D8072882E8C2D8074782E9AE382
:10078000A92E209719F4DD2009F451C08C2D0E9468
:10079000070281110AC0BA94BB20B9F261E070E08F
:1007A00080E090E00E94830AECCF282F30E0C2174F
:1007B000D3070CF48C2F9FB7F8949092E900209106
:1007C000E80025FF32C0282F30E0C21BD30B882061
:1007D00029F08150A0F01092F100FBCFF801C7FE84
:1007E0000AC0815050F044914093F1003196F9CF06
:1007F00041914093F1008150D8F7020F131FDD2083
:1008000019F0A092E8000AC08091E80085FD08C0B8
:10081000A092E800DD24D394209739F0D12C05C0B4
:10082000209719F47110A092E8009FBFAACF5D989D
:1008300084E680937101C701DF91CF911F910F91E1
:10084000FF90EF90DF90CF90BF90AF909F908F90F0
:100850007F900895CF93DF93EC0180910B01882363
:1008600031F083E00E9491031816190634F081E0FC
:1008700090E09B838A8380E090E0DF91CF910895A0
:10088000862F642F0C94470A862F642F0C94180A25
:10089000862F0C94EF090E94480E0F931F93CF935D
:1008A000DF931F92CDB7DEB78C01FC01848595855F
:1008B00097FF0EC0CE0101960E94C109019719F45D
:1008C000898190E002C08FEF9FEFF80195878487C0
:1008D000F801848595850F90DF91CF911F910F913D
:1008E0000895CF93DF931F92CDB7DEB7FC018485C7
:1008F000958597FD05C02FEF3FEF358724870BC007
:10090000CE0101960E94C109019719F4898190E0F6
:1009100002C08FEF9FEF0F90DF91CF9108950F935B
:100920001F93CF93DF931F92CDB7DEB78B018091DA
:10093000DB01811105C00E94E80881E08093DB01A2
:1009400082E0898341E050E0BE016F5F7F4F80917C
:10095000CD010E94910397FD08C08091CD0148E030
:1009600050E0B80180640E9491030F90DF91CF9115
:100970001F910F910895DC01683810F068582DC060
:10098000E62FF0E067FF11C0E058F10981E090E048
:1009900001C0880FEA95EAF714969C911497892B69
:1009A00014968C93149760E018C0E850FF4F649140
:1009B000611109C081E090E013969C938E93129789
:1009C00080E090E0089567FF08C014968C9114971A
:1009D000826014968C9314976F7716968C91169765
:1009E000681751F117968C911797681729F1189687
:1009F0008C911897681701F119968C9119976817BF
:100A0000D9F01A968C911A976817B1F01B968C91B1
:100A10001B97681789F0FD01369680E090E02191E0
:100A2000211105C0FD01E80FF91F668305C001967D
:100A300086309105A1F7BECFCD01BD016C5F7F4F20
:100A40000E948F0481E090E00895EF92FF920F934F
:100A50001F93CF938C01C62F0E94BB047C01C83822
:100A600018F068E76C0F1FC0EC2FF0E0C7FF0FC055
:100A7000E058F10981E090E001C0880FEA95EAF7BB
:100A80008095F80194818923848360E00CC0E8504C
:100A9000FF4F64916623C9F067FF05C0F8018481A8
:100AA0008D7F84836F77F80186E0662321F096813D
:100AB000691301C01682815031968111F6CFB801B9
:100AC0006C5F7F4FC8010E948F04C7019927CF91A7
:100AD0001F910F91FF90EF9008951F920F920FB604
:100AE0000F9211248F939F938091E1009091E100E8
:100AF000937F9093E10083FF0FC01092E90091E093
:100B00009093EB001092EC0092E39093ED00109222
:100B1000750198E09093F00082FF20C093E09093DD
:100B2000E9009091F200992319F09AE39093E8007C
:100B300090917101992339F09091710191509093A6
:100B40007101992389F190917401992339F0909161
:100B50007401915090937401992341F184FF10C066
:100B60008091E2008E7E81608093E2008091E100BE
:100B70008F7E8093E100809172018E7E806111C032
:100B800080FF16C08091E2008E7E80618093E2003B
:100B90008091E1008E7E8093E100809172018E7ED3
:100BA00081608093720104C05D9ACDCF289AD6CF20
:100BB0009F918F910F900FBE0F901F90189580916D
:100BC000640181110DC082E08093600184E0809314
:100BD0006101109263011092620181E080936401CF
:100BE00080E691E008950F931F93CF93DF931F92B8
:100BF000CDB7DEB782E0898342E450E068E771E078
:100C000080E80E94E0010E94DF05DC0112960D9150
:100C10001C9113970115110589F0D801ED91FC91F4
:100C20000280F381E02DBE016F5F7F4FC8010995FF
:100C300097FD04C0F80100851185ECCF89810F90E4
:100C4000DF91CF911F910F9108951F920F920FB6D0
:100C50000F921124CF92DF92EF92FF920F931F9386
:100C60002F933F934F935F936F937F938F939F93B4
:100C7000AF93BF93EF93FF93CF93DF93CDB7DEB7DF
:100C80006C97DEBFCDBF1092E9008091E80083FF32
:100C9000FBC168E0CE0145960E94180282EF809366
:100CA000E8008D8987FF05C09091E80090FFFCCF98
:100CB00003C09EEF9093E800982F907609F0C6C08D
:100CC0009E894F89588D2F89F88C91110CC08038DE
:100CD00029F4809173018093F10002C01092F10019
:100CE0001092F10045C1913051F4811141C1413060
:100CF000510509F03DC1809173018D7F0BC0933088
:100D000061F4811135C14130510509F031C1809143
:100D100073018260809373012BC1953049F48091F7
:100D2000E80080FFFCCF822F80688093E30020C121
:100D3000963009F05EC00B8D1C8D22E01092E90008
:100D400010926F0110926E01F21232C010926D017A
:100D500010926C010E94F30599E0BE016F5F7F4F16
:100D6000DB01E92F1D92EA95E9F79983FA8291E078
:100D70009E8390EA98879AEF998720916E0130912F
:100D80006F01275F3F4F3C832B838D831092E900D7
:100D900010926F0110926E0110936D0100936C011F
:100DA00049E050E080E00E94E0010E94F305E0C0CD
:100DB00010936D0100936C010E94DF05DC01129617
:100DC0000D911C9113970115110509F4BBC0D801B1
:100DD000ED91FC910480F581E02DBE016B5E7F4FAB
:100DE000C8010995009709F0C7C0F8010085118571
:100DF000EACF973009F445C1983021F481E080931F
:100E0000F100B6C0993009F0B3C0837009F039C160
:100E1000EDE0F1E081E031E096E32081211109C0AD
:100E20008EE78093EA001092EA008F898093750123
:100E30009FC08093E9003093EB0021912093EC0058
:100E40009093ED008F5F873041F7EACF8B8D9C8DBB
:100E50001092E90010926F0110926E0190936D0153
:100E600080936C01898D811153C08E899D89913A3F
:100E700049F4813209F005C147E050E064E071E0D7
:100E800080E0BBC0913209F0FCC0833269F48F89E5
:100E9000988DA0E0B0E08093000190930101A093B1
:100EA0000201B093030164C0803269F48091E800CC
:100EB00082FFFCCF67E084E091E00E9418028BEF94
:100EC0008093E80055C0823209F052C08F89809328
:100ED0000B01EEEFFFE7859194918B3F9C4D19F04C
:100EE000E0E0F8E002C0EEEFFAE0809104019091BA
:100EF0000501A0910601B0910701803B9440A10536
:100F0000B10509F09EC080910B0180FF79C099C0A6
:100F10000E94DF05FC01028113810115110509F40E
:100F2000B0C0D801ED91FC910190F081E02DBE019F
:100F30006B5E7F4FC801099581111AC0F8010085C9
:100F40001185EBCFF1E0FF1609F44EC0F3E0FF127C
:100F500098C08F89882309F44AC0823089F440E818
:100F600060E18CED91E00E94AB01882309F489C017
:100F70008EEF8093E80088C018161906CCF381C064
:100F8000813029F440E86BE080ED91E0ECCF8330D4
:100F900009F077C00E94DF05DC011296ED90FC900D
:100FA00013978E010F5F1F4F6801E114F10479F070
:100FB000D701ED91FC910680F781E02DB801C701C2
:100FC0000995080F111DF701E084F184EECFD801D7
:100FD0001C92F60101900020E9F73197BF016C19CE
:100FE0007D0940E0C601BFCF6EEB71E002C06AEB45
:100FF00071E0FB01449150E080E80E94E001B8CF2D
:10100000EE3F2AE0F20751F0808191818737A7E710
:101010009A0721F09093FF0A8093FE0A87E797E7EB
:101020009183808380916000809370019BE088E1D0
:101030000FB6F894A895809360000FBE909360005F
:1010400097CF808191818737974709F091CFA895F5
:10105000809160008861809360008091700180932E
:101060006000EE3FBAE0FB0739F08091FE0A9091F4
:10107000FF0A918380837CCF1092FF0A1092FE0AB0
:1010800077CF81E28093EB006C960FB6F894DEBFC9
:101090000FBECDBFDF91CF91FF91EF91BF91AF9187
:1010A0009F918F917F916F915F914F913F912F9180
:1010B0001F910F91FF90EF90DF90CF900F900FBE98
:1010C0000F901F90189596E0899FD0011124A1518F
:1010D000BE4F90967C936E935F9791E091969C9310
:1010E000919790915B02E0915C02F0915D029923EF
:1010F00039F0309751F0811108C080910B0204C083
:10110000309719F05C968C910994089590E0FC0159
:101110003197EF30F105B0F5E359FF4F0C94420ED3
:10112000809180008F7703C0809180008F7D8093B5
:101130008000089580918000877FF9CF84B58F77F4
:1011400002C084B58F7D84BD0895809190008F7713
:1011500007C0809190008F7D03C080919000877FB1
:101160008093900008958091C0008F7703C0809194
:10117000C0008F7D8093C00008958091C200877F5A
:101180008093C20008953FB7F89480915F029091D8
:101190006002A0916102B091620226B5A89B05C0D1
:1011A0002F3F19F00196A11DB11D3FBFBA2FA92FE6
:1011B000982F8827820F911DA11DB11DBC01CD0163
:1011C00042E0660F771F881F991F4A95D1F708954F
:1011D00081E08093CE018093CF0124ED31E0309304
:1011E000D1012093D0011092D3011092D2012AE2B2
:1011F00031E03093CB012093CA011092D6011092B6
:10120000D5011092D8011092D7018093D901809313
:10121000DA0181EC8093D4010E94DF05FC01218179
:101220008091CE0190E0820F911D0897C4F5A281B4
:10123000B381109729F48AEC91E0938382830EC0E6
:1012400018968D919C911997009711F0DC01F8CFB9
:101250008AEC91E019969C938E93189780818093E5
:10126000CC0181818093CD0190818091CF01890F44
:10127000808380E09091CE01891788F4A091D001FD
:10128000B091D101A80FB11D9C91A181B0E0A45FE4
:10129000BE4F9C9391819F5F91838F5FEBCF0895A9
:1012A000CF92DF92EF92FF920F931F9396E0899F68
:1012B000F0011124E151FE4F11A2278D30A1213000
:1012C000310539F158F02230310509F447C0233097
:1012D000310509F04FC060E070E044C0662309F4B6
:1012E00049C061E070E00E9463082FB7F8948091D4
:1012F000760190917701A0917801B09179012FBF8B
:101300008093470290934802A0934902B0934A0207
:1013100031C09FB7F894C0907601D0907701E090EB
:101320007801F09079019FBF009147021091480227
:101330002091490230914A02C01AD10AE20AF30A06
:101340000091590210915A0220E030E00C151D0561
:101350002E053F0518F462E070E004C061110AC078
:1013600063E070E01F910F91FF90EF90DF90CF90BE
:101370000C9463081F910F91FF90EF90DF90CF9036
:10138000089520917501211103C08FEF9FEF0895FB
:101390005FB7F89422E02093E9002091F20030E05A
:1013A0001216130614F421E030E0422FFC0184E60B
:1013B000415038F02898809374019091F1009193F6
:1013C000F7CF2115310521F08091F200882319F023
:1013D0005FBFC90108958BE68093E800F9CFCF93F2
:1013E000DF93282F30E0F901EB5AFD4F8491F9018A
:1013F000EA5CFD4FD491F901E95EFD4FC491CC2325
:1014000091F081110E948608EC2FF0E0EE0FFF1F93
:10141000E75FFD4FA591B491EC91ED2381E090E061
:1014200021F480E002C080E090E0DF91CF91089548
:101430001F93CF93DF93282F30E0F901EB5AFD4F34
:101440008491F901EA5CFD4FD491F901E95EFD4F09
:10145000C491CC23C1F0162F81110E948608EC2F75
:10146000F0E0EE0FFF1FE550FE4FA591B4919FB73E
:10147000F894111104C08C91D095D82302C0EC913E
:10148000DE2BDC939FBFDF91CF911F910895CF9307
:10149000DF9390E0FC01EA5CFD4F2491FC01E95EE2
:1014A000FD4F8491882361F190E0880F991FFC0122
:1014B000E351FE4FC591D491FC01E550FE4FA5913B
:1014C000B491611109C09FB7F89488812095822357
:1014D0008883EC912E230BC0623061F49FB7F8949F
:1014E0008881322F309583238883EC912E2B2C9387
:1014F0009FBF06C08FB7F894E8812E2B28838FBF3B
:10150000DF91CF9108958F929F92AF92BF92CF9229
:10151000DF92EF92FF926B017C010E94C3084B01A6
:101520005C01C114D104E104F104F1F00E94C3088C
:10153000DC01CB0188199909AA09BB09883E9340AF
:10154000A105B10570F321E0C21AD108E108F10844
:1015500088EE880E83E0981EA11CB11CC114D10432
:10156000E104F10419F7DDCFFF90EF90DF90CF9009
:10157000BF90AF909F908F9008951F920F920FB6DB
:101580000F9211242F933F938F939F93AF93BF9309
:101590008091760190917701A0917801B0917901C5
:1015A00030915E0223E0230F2D3720F40196A11D18
:1015B000B11D05C026E8230F0296A11DB11D209381
:1015C0005E028093760190937701A0937801B093A7
:1015D000790180915F0290916002A0916102B091C7
:1015E00062020196A11DB11D80935F02909360027B
:1015F000A0936102B0936202BF91AF919F918F91CE
:101600003F912F910F900FBE0F901F9018957894D7
:1016100084B5826084BD84B5816084BD85B58260F7
:1016200085BD85B5816085BD80916E0081608093A8
:101630006E00109281008091810082608093810011
:101640008091810081608093810080918000816021
:1016500080938000809191008260809391008091BE
:1016600091008160809391008091900081608093CF
:1016700090008091C10084608093C1008091C1007E
:1016800082608093C1008091C10081608093C1001D
:101690008091C30081608093C3008091C00082600C
:1016A0008093C0008091C20081608093C2008091CD
:1016B0007A00846080937A0080917A0082608093BF
:1016C0007A0080917A00816080937A0080917A001C
:1016D000806880937A0010927501109273011092C5
:1016E00072018091D70081608093D70080EA809357
:1016F000D80089B5806189BD89B5826089BD09B48A
:1017000000FEFDCF61E070E080E090E00E94830A7F
:101710008091D8008F7C80618093D8008091E00018
:10172000807F8093E0008091E1008E7E8093E100D5
:101730008DE08093E200559A209A8FEF9FEF90936F
:10174000870180938601412C512C3201439422243D
:101750002A94322C60E0C62E60E0D62E21E0209341
:101760005B028FB7F89440917601509177016091B8
:101770007801709179018FBF80914B0290914C025A
:10178000A0914D02B0914E02481B590B6A0B7B0B86
:101790008091570290915802A0E0B0E0841795071D
:1017A000A607B70708F0E6C0C0E080915502C81749
:1017B00010F0912C40C0E0915102F0915202EC0FD8
:1017C000F11D62E080810E94470ACF5FEECFC82DF5
:1017D000D0E0E0915102F0915202EC0FFD1F8081A8
:1017E0000E94EF092496CC0FDD1FC151DE4F892BDB
:1017F00009F04BC0888199818A299B299983888324
:10180000839480915502881610F3E0915302F09171
:101810005402E00FF11F61E080810E94180A80915C
:10182000530290915402FC01E00FF11F60E08081AF
:101830000E94470A939480915602981658F5092DF4
:1018400010E0E0915302F0915402E00FF11F61E0CB
:1018500080810E94470AE0915302F0915402E00F08
:10186000F11F60E080810E94180AD301C201092C97
:1018700004C0880F991FAA1FBB1F0A94D2F75C01EE
:101880007C01E094F094812CBCCF888199818E21D9
:101890009F21B4CFCFEED1E0FE01878D90A1892B9F
:1018A00021F4148E368E258E11A2369632E0EB325C
:1018B000F30799F710E080915502181770F500E0D2
:1018C000E12EF12CC701880F991FFC01E950FE4F52
:1018D0007F01209156020217F0F4F70140815181F7
:1018E000002E02C0569547950A94E2F7642F617066
:1018F000129F90011124200F311DEFEEF1E080E0E6
:10190000A58DB68D2A173B0709F4FBC08F5F36966D
:101910008A30B1F7D8C01F5FCECF80E099A1911176
:1019200081E0269622E0CB32D207C1F79FB7F89428
:101930004091760150917701609178017091790121
:101940009FBF40934B0250934C0260934D027093A3
:101950004E02882379F080911002882359F08091FB
:101960000E0290910F02019729F4E0910B02E11110
:1019700004C0A2C010925B029FC08E2FEE0F990B85
:10198000AA0BBB0BFC01B397E731F10508F06AC065
:10199000EA5AFF4F0C94420E61E883EE91E00E94F8
:1019A000BB0460E883EE91E00E94BB046CE656C085
:1019B00062E883EE91E00E94BB046AED4FC061E8EB
:1019C00083EE91E00E94BB0460E883EE91E00E9408
:1019D000BB0461E643C060E883EE91E00E94BB0473
:1019E0006BE53CC062E883EE91E00E94BB0469EDC8
:1019F00035C060E883EE91E00E94BB046DE52EC027
:101A000060E806C060E883EE91E00E94BB0461E8F4
:101A100083EE91E00E94BB0460E220C060E883EEA8
:101A200091E00E94BB046FE219C060E883EE91E090
:101A30000E94BB0461E883EE91E00E94BB0460E673
:101A40000DC060E883EE91E00E94BB0467E706C02A
:101A500060E883EE91E00E94BB046BE683EE91E0C8
:101A60000E94BB0464E670E080E090E00E94830A7C
:101A70001092E9011092EA011092EB011092EC0130
:101A80001092ED011092EE011092E70167EE71E005
:101A900083EE91E00E948F0442E050E06AE571E03D
:101AA0008AE791E00E942A0442E050E06DE571E08F
:101AB0008AE791E00E942A04C114D10409F44ECEB1
:101AC0000E9400004BCE40FF1EC0EFEEF1E080E030
:101AD00090E0448D411119C0E0914F02F091500205
:101AE000E20FF31F7081F6E0F89FA001F99F500DFF
:101AF0001124FA01E151FE4F748F368F258F10A209
:101B0000178E0E9450090F5FE4CE019636968A30F8
:101B10009105F9F6F8CF10927D0110927C0188EEC4
:101B200093E0A0E0B0E080937E0190937F01A093CA
:101B30008001B093810186E391E090937B018093D3
:101B40007A018FEF9FEF9093870180938601109227
:101B5000E6011092E50188E491E09093E40180931E
:101B6000E30180916902811113C010926402109206
:101B7000630284E792E090936602809365028FE2AD
:101B800090E0909368028093670281E080936902FD
:101B90008091DB01811105C00E94E80881E08093FB
:101BA000DB01E091D501F091D601309739F483E65D
:101BB00092E09093D6018093D5010AC080819181F3
:101BC000009711F0FC01FACF83E692E091838083C5
:101BD0002091D7013091D8018091670290916802DD
:101BE000820F931F9093D8018093D7011092F10137
:101BF0001092F5011092F4011092F60184E591E043
:101C00009093F0018093EF01EFEEF1E0148E10A2BB
:101C1000178E11A2369682E0EB32F807B9F786E10B
:101C200091E0909352028093510283E191E090936E
:101C300054028093530284E08093550283E08093A2
:101C400056028AE191E09093500280934F028AE01D
:101C500090E0909358028093570284EF91E0909324
:101C60005A028093590210925D0210925C02109207
:101C70004B0210924C0210924D0210924E021092A2
:101C80005B020895EE0FFF1F0590F491E02D09947B
:0E1C900081E090E0F8940C944D0EF894FFCF94
:101C9E00FFFFFFFF00E100000000000000C1808197
:101CAE0000000006070802030405313233343536CE
:101CBE003738392A3023000000008F021203D20277
:101CCE00B602000000004F022A047002650275027F
:101CDE0071044D0400000000250561038E038D0381
:101CEE00000000004004440448046161000D0A0035
:00000001FF
